{
  "_format": "hh-sol-artifact-1",
  "contractName": "WChainDapp",
  "sourceName": "contracts/WChainDapp.sol",
  "abi": [
    {
      "inputs": [
        {
          "internalType": "address",
          "name": "_token",
          "type": "address"
        }
      ],
      "stateMutability": "nonpayable",
      "type": "constructor"
    },
    {
      "inputs": [],
      "name": "AlreadyClaimed",
      "type": "error"
    },
    {
      "inputs": [],
      "name": "DepositAmountZero",
      "type": "error"
    },
    {
      "inputs": [],
      "name": "DepositCooldownNotReached",
      "type": "error"
    },
    {
      "inputs": [
        {
          "internalType": "uint256",
          "name": "unlockTime",
          "type": "uint256"
        }
      ],
      "name": "DepositLocked",
      "type": "error"
    },
    {
      "inputs": [
        {
          "internalType": "address",
          "name": "spender",
          "type": "address"
        },
        {
          "internalType": "uint256",
          "name": "allowance",
          "type": "uint256"
        },
        {
          "internalType": "uint256",
          "name": "needed",
          "type": "uint256"
        }
      ],
      "name": "ERC20InsufficientAllowance",
      "type": "error"
    },
    {
      "inputs": [
        {
          "internalType": "address",
          "name": "sender",
          "type": "address"
        },
        {
          "internalType": "uint256",
          "name": "balance",
          "type": "uint256"
        },
        {
          "internalType": "uint256",
          "name": "needed",
          "type": "uint256"
        }
      ],
      "name": "ERC20InsufficientBalance",
      "type": "error"
    },
    {
      "inputs": [
        {
          "internalType": "address",
          "name": "approver",
          "type": "address"
        }
      ],
      "name": "ERC20InvalidApprover",
      "type": "error"
    },
    {
      "inputs": [
        {
          "internalType": "address",
          "name": "receiver",
          "type": "address"
        }
      ],
      "name": "ERC20InvalidReceiver",
      "type": "error"
    },
    {
      "inputs": [
        {
          "internalType": "address",
          "name": "sender",
          "type": "address"
        }
      ],
      "name": "ERC20InvalidSender",
      "type": "error"
    },
    {
      "inputs": [
        {
          "internalType": "address",
          "name": "spender",
          "type": "address"
        }
      ],
      "name": "ERC20InvalidSpender",
      "type": "error"
    },
    {
      "inputs": [
        {
          "internalType": "uint8",
          "name": "tier",
          "type": "uint8"
        }
      ],
      "name": "InvalidTier",
      "type": "error"
    },
    {
      "inputs": [
        {
          "internalType": "uint8",
          "name": "tier",
          "type": "uint8"
        }
      ],
      "name": "NoActiveDeposit",
      "type": "error"
    },
    {
      "inputs": [],
      "name": "NotOwner",
      "type": "error"
    },
    {
      "inputs": [],
      "name": "NotWhitelisted",
      "type": "error"
    },
    {
      "anonymous": false,
      "inputs": [
        {
          "indexed": true,
          "internalType": "address",
          "name": "owner",
          "type": "address"
        },
        {
          "indexed": true,
          "internalType": "address",
          "name": "spender",
          "type": "address"
        },
        {
          "indexed": false,
          "internalType": "uint256",
          "name": "value",
          "type": "uint256"
        }
      ],
      "name": "Approval",
      "type": "event"
    },
    {
      "anonymous": false,
      "inputs": [
        {
          "indexed": true,
          "internalType": "address",
          "name": "user",
          "type": "address"
        },
        {
          "indexed": false,
          "internalType": "uint256",
          "name": "amount",
          "type": "uint256"
        }
      ],
      "name": "Claimed",
      "type": "event"
    },
    {
      "anonymous": false,
      "inputs": [
        {
          "indexed": true,
          "internalType": "address",
          "name": "user",
          "type": "address"
        },
        {
          "indexed": false,
          "internalType": "uint256",
          "name": "amount",
          "type": "uint256"
        },
        {
          "indexed": false,
          "internalType": "uint8",
          "name": "tier",
          "type": "uint8"
        },
        {
          "indexed": false,
          "internalType": "uint256",
          "name": "reward",
          "type": "uint256"
        },
        {
          "indexed": false,
          "internalType": "uint256",
          "name": "unlockTime",
          "type": "uint256"
        }
      ],
      "name": "Deposited",
      "type": "event"
    },
    {
      "anonymous": false,
      "inputs": [
        {
          "indexed": true,
          "internalType": "uint8",
          "name": "tier",
          "type": "uint8"
        },
        {
          "indexed": false,
          "internalType": "uint256",
          "name": "rewardRate",
          "type": "uint256"
        },
        {
          "indexed": false,
          "internalType": "uint256",
          "name": "lockTime",
          "type": "uint256"
        }
      ],
      "name": "TierUpdated",
      "type": "event"
    },
    {
      "anonymous": false,
      "inputs": [
        {
          "indexed": true,
          "internalType": "address",
          "name": "from",
          "type": "address"
        },
        {
          "indexed": true,
          "internalType": "address",
          "name": "to",
          "type": "address"
        },
        {
          "indexed": false,
          "internalType": "uint256",
          "name": "value",
          "type": "uint256"
        }
      ],
      "name": "Transfer",
      "type": "event"
    },
    {
      "anonymous": false,
      "inputs": [
        {
          "indexed": true,
          "internalType": "address",
          "name": "user",
          "type": "address"
        },
        {
          "indexed": false,
          "internalType": "bool",
          "name": "status",
          "type": "bool"
        }
      ],
      "name": "Whitelisted",
      "type": "event"
    },
    {
      "inputs": [
        {
          "internalType": "address",
          "name": "owner",
          "type": "address"
        },
        {
          "internalType": "address",
          "name": "spender",
          "type": "address"
        }
      ],
      "name": "allowance",
      "outputs": [
        {
          "internalType": "uint256",
          "name": "",
          "type": "uint256"
        }
      ],
      "stateMutability": "view",
      "type": "function"
    },
    {
      "inputs": [
        {
          "internalType": "address",
          "name": "spender",
          "type": "address"
        },
        {
          "internalType": "uint256",
          "name": "value",
          "type": "uint256"
        }
      ],
      "name": "approve",
      "outputs": [
        {
          "internalType": "bool",
          "name": "",
          "type": "bool"
        }
      ],
      "stateMutability": "nonpayable",
      "type": "function"
    },
    {
      "inputs": [
        {
          "internalType": "address",
          "name": "account",
          "type": "address"
        }
      ],
      "name": "balanceOf",
      "outputs": [
        {
          "internalType": "uint256",
          "name": "",
          "type": "uint256"
        }
      ],
      "stateMutability": "view",
      "type": "function"
    },
    {
      "inputs": [
        {
          "internalType": "uint8",
          "name": "_tier",
          "type": "uint8"
        }
      ],
      "name": "claim",
      "outputs": [],
      "stateMutability": "nonpayable",
      "type": "function"
    },
    {
      "inputs": [],
      "name": "dappToken",
      "outputs": [
        {
          "internalType": "contract IERC20",
          "name": "",
          "type": "address"
        }
      ],
      "stateMutability": "view",
      "type": "function"
    },
    {
      "inputs": [],
      "name": "decimals",
      "outputs": [
        {
          "internalType": "uint8",
          "name": "",
          "type": "uint8"
        }
      ],
      "stateMutability": "view",
      "type": "function"
    },
    {
      "inputs": [
        {
          "internalType": "uint8",
          "name": "_tier",
          "type": "uint8"
        },
        {
          "internalType": "uint256",
          "name": "_amount",
          "type": "uint256"
        }
      ],
      "name": "deposit",
      "outputs": [],
      "stateMutability": "payable",
      "type": "function"
    },
    {
      "inputs": [],
      "name": "depositCooldown",
      "outputs": [
        {
          "internalType": "uint256",
          "name": "",
          "type": "uint256"
        }
      ],
      "stateMutability": "view",
      "type": "function"
    },
    {
      "inputs": [
        {
          "internalType": "address",
          "name": "",
          "type": "address"
        },
        {
          "internalType": "uint8",
          "name": "",
          "type": "uint8"
        }
      ],
      "name": "deposits",
      "outputs": [
        {
          "internalType": "uint256",
          "name": "amount",
          "type": "uint256"
        },
        {
          "internalType": "uint256",
          "name": "reward",
          "type": "uint256"
        },
        {
          "internalType": "uint256",
          "name": "unlockTime",
          "type": "uint256"
        },
        {
          "internalType": "bool",
          "name": "claimed",
          "type": "bool"
        }
      ],
      "stateMutability": "view",
      "type": "function"
    },
    {
      "inputs": [
        {
          "internalType": "address",
          "name": "_user",
          "type": "address"
        },
        {
          "internalType": "uint8",
          "name": "_tier",
          "type": "uint8"
        }
      ],
      "name": "getDepositDetails",
      "outputs": [
        {
          "internalType": "uint256",
          "name": "",
          "type": "uint256"
        },
        {
          "internalType": "uint256",
          "name": "",
          "type": "uint256"
        },
        {
          "internalType": "uint256",
          "name": "",
          "type": "uint256"
        },
        {
          "internalType": "bool",
          "name": "",
          "type": "bool"
        }
      ],
      "stateMutability": "view",
      "type": "function"
    },
    {
      "inputs": [
        {
          "internalType": "address",
          "name": "",
          "type": "address"
        }
      ],
      "name": "hasClaimed",
      "outputs": [
        {
          "internalType": "bool",
          "name": "",
          "type": "bool"
        }
      ],
      "stateMutability": "view",
      "type": "function"
    },
    {
      "inputs": [
        {
          "internalType": "address",
          "name": "",
          "type": "address"
        }
      ],
      "name": "lastDepositTime",
      "outputs": [
        {
          "internalType": "uint256",
          "name": "",
          "type": "uint256"
        }
      ],
      "stateMutability": "view",
      "type": "function"
    },
    {
      "inputs": [
        {
          "internalType": "address",
          "name": "to",
          "type": "address"
        },
        {
          "internalType": "uint256",
          "name": "amount",
          "type": "uint256"
        }
      ],
      "name": "mint",
      "outputs": [],
      "stateMutability": "nonpayable",
      "type": "function"
    },
    {
      "inputs": [],
      "name": "name",
      "outputs": [
        {
          "internalType": "string",
          "name": "",
          "type": "string"
        }
      ],
      "stateMutability": "view",
      "type": "function"
    },
    {
      "inputs": [],
      "name": "owner",
      "outputs": [
        {
          "internalType": "address",
          "name": "",
          "type": "address"
        }
      ],
      "stateMutability": "view",
      "type": "function"
    },
    {
      "inputs": [
        {
          "internalType": "address",
          "name": "_user",
          "type": "address"
        },
        {
          "internalType": "bool",
          "name": "_status",
          "type": "bool"
        }
      ],
      "name": "setWhitelist",
      "outputs": [],
      "stateMutability": "nonpayable",
      "type": "function"
    },
    {
      "inputs": [],
      "name": "symbol",
      "outputs": [
        {
          "internalType": "string",
          "name": "",
          "type": "string"
        }
      ],
      "stateMutability": "view",
      "type": "function"
    },
    {
      "inputs": [
        {
          "internalType": "uint8",
          "name": "",
          "type": "uint8"
        }
      ],
      "name": "tiers",
      "outputs": [
        {
          "internalType": "uint256",
          "name": "rewardRate",
          "type": "uint256"
        },
        {
          "internalType": "uint256",
          "name": "lockTime",
          "type": "uint256"
        }
      ],
      "stateMutability": "view",
      "type": "function"
    },
    {
      "inputs": [],
      "name": "totalSupply",
      "outputs": [
        {
          "internalType": "uint256",
          "name": "",
          "type": "uint256"
        }
      ],
      "stateMutability": "view",
      "type": "function"
    },
    {
      "inputs": [
        {
          "internalType": "address",
          "name": "to",
          "type": "address"
        },
        {
          "internalType": "uint256",
          "name": "value",
          "type": "uint256"
        }
      ],
      "name": "transfer",
      "outputs": [
        {
          "internalType": "bool",
          "name": "",
          "type": "bool"
        }
      ],
      "stateMutability": "nonpayable",
      "type": "function"
    },
    {
      "inputs": [
        {
          "internalType": "address",
          "name": "from",
          "type": "address"
        },
        {
          "internalType": "address",
          "name": "to",
          "type": "address"
        },
        {
          "internalType": "uint256",
          "name": "value",
          "type": "uint256"
        }
      ],
      "name": "transferFrom",
      "outputs": [
        {
          "internalType": "bool",
          "name": "",
          "type": "bool"
        }
      ],
      "stateMutability": "nonpayable",
      "type": "function"
    },
    {
      "inputs": [
        {
          "internalType": "uint8",
          "name": "_tier",
          "type": "uint8"
        },
        {
          "internalType": "uint256",
          "name": "_rewardRate",
          "type": "uint256"
        },
        {
          "internalType": "uint256",
          "name": "_lockTime",
          "type": "uint256"
        }
      ],
      "name": "updateTier",
      "outputs": [],
      "stateMutability": "nonpayable",
      "type": "function"
    },
    {
      "inputs": [
        {
          "internalType": "address",
          "name": "",
          "type": "address"
        }
      ],
      "name": "whitelisted",
      "outputs": [
        {
          "internalType": "bool",
          "name": "",
          "type": "bool"
        }
      ],
      "stateMutability": "view",
      "type": "function"
    },
    {
      "stateMutability": "payable",
      "type": "receive"
    }
  ],
  "bytecode": "0x608060405262015180600c5534801561001757600080fd5b50604051612a40380380612a408339818101604052810190610039919061028a565b6040518060400160405280600781526020017f4d79546f6b656e000000000000000000000000000000000000000000000000008152506040518060400160405280600381526020017f4d544b000000000000000000000000000000000000000000000000000000000081525081600390816100b49190610507565b5080600490816100c49190610507565b50505033600560006101000a81548173ffffffffffffffffffffffffffffffffffffffff021916908373ffffffffffffffffffffffffffffffffffffffff16021790555080600660006101000a81548173ffffffffffffffffffffffffffffffffffffffff021916908373ffffffffffffffffffffffffffffffffffffffff16021790555060405180604001604052806101f4815260200162093a8081525060076000600160ff168152602001908152602001600020600082015181600001556020820151816001015590505060405180604001604052806103e881526020016212750081525060076000600260ff168152602001908152602001600020600082015181600001556020820151816001015590505060405180604001604052806105dc815260200162278d0081525060076000600360ff1681526020019081526020016000206000820151816000015560208201518160010155905050506105d9565b600080fd5b600073ffffffffffffffffffffffffffffffffffffffff82169050919050565b60006102578261022c565b9050919050565b6102678161024c565b811461027257600080fd5b50565b6000815190506102848161025e565b92915050565b6000602082840312156102a05761029f610227565b5b60006102ae84828501610275565b91505092915050565b600081519050919050565b7f4e487b7100000000000000000000000000000000000000000000000000000000600052604160045260246000fd5b7f4e487b7100000000000000000000000000000000000000000000000000000000600052602260045260246000fd5b6000600282049050600182168061033857607f821691505b60208210810361034b5761034a6102f1565b5b50919050565b60008190508160005260206000209050919050565b60006020601f8301049050919050565b600082821b905092915050565b6000600883026103b37fffffffffffffffffffffffffffffffffffffffffffffffffffffffffffffffff82610376565b6103bd8683610376565b95508019841693508086168417925050509392505050565b6000819050919050565b6000819050919050565b60006104046103ff6103fa846103d5565b6103df565b6103d5565b9050919050565b6000819050919050565b61041e836103e9565b61043261042a8261040b565b848454610383565b825550505050565b600090565b61044761043a565b610452818484610415565b505050565b5b818110156104765761046b60008261043f565b600181019050610458565b5050565b601f8211156104bb5761048c81610351565b61049584610366565b810160208510156104a4578190505b6104b86104b085610366565b830182610457565b50505b505050565b600082821c905092915050565b60006104de600019846008026104c0565b1980831691505092915050565b60006104f783836104cd565b9150826002028217905092915050565b610510826102b7565b67ffffffffffffffff811115610529576105286102c2565b5b6105338254610320565b61053e82828561047a565b600060209050601f831160018114610571576000841561055f578287015190505b61056985826104eb565b8655506105d1565b601f19841661057f86610351565b60005b828110156105a757848901518255600182019150602085019450602081019050610582565b868310156105c457848901516105c0601f8916826104cd565b8355505b6001600288020188555050505b505050505050565b612458806105e86000396000f3fe6080604052600436106101445760003560e01c806373b2e80e116100b6578063a9059cbb1161006f578063a9059cbb146104a7578063d1d79974146104e4578063d936547e14610522578063dd62ed3e1461055f578063f4d4c9d71461059c578063fcb0c8ed146105b85761014b565b806373b2e80e1461038257806389795ca9146103bf5780638da5cb5b146103ff57806395d4063f1461042a57806395d89b41146104535780639a9c39041461047e5761014b565b806323b872dd1161010857806323b872dd14610260578063313ce5671461029d57806340c10f19146102c857806353d6fd59146102f15780635eb186f81461031a57806370a08231146103455761014b565b8063025277531461015057806306fdde031461018d578063095ea7b3146101b8578063137e45fe146101f557806318160ddd146102355761014b565b3661014b57005b600080fd5b34801561015c57600080fd5b5061017760048036038101906101729190611c76565b6105e3565b6040516101849190611cbc565b60405180910390f35b34801561019957600080fd5b506101a26105fb565b6040516101af9190611d67565b60405180910390f35b3480156101c457600080fd5b506101df60048036038101906101da9190611db5565b61068d565b6040516101ec9190611e10565b60405180910390f35b34801561020157600080fd5b5061021c60048036038101906102179190611e64565b6106b0565b60405161022c9493929190611ea4565b60405180910390f35b34801561024157600080fd5b5061024a6106fa565b6040516102579190611cbc565b60405180910390f35b34801561026c57600080fd5b5061028760048036038101906102829190611ee9565b610704565b6040516102949190611e10565b60405180910390f35b3480156102a957600080fd5b506102b2610733565b6040516102bf9190611f4b565b60405180910390f35b3480156102d457600080fd5b506102ef60048036038101906102ea9190611db5565b61073c565b005b3480156102fd57600080fd5b5061031860048036038101906103139190611f92565b61074a565b005b34801561032657600080fd5b5061032f61087a565b60405161033c9190612031565b60405180910390f35b34801561035157600080fd5b5061036c60048036038101906103679190611c76565b6108a0565b6040516103799190611cbc565b60405180910390f35b34801561038e57600080fd5b506103a960048036038101906103a49190611c76565b6108e8565b6040516103b69190611e10565b60405180910390f35b3480156103cb57600080fd5b506103e660048036038101906103e19190611e64565b610908565b6040516103f69493929190611ea4565b60405180910390f35b34801561040b57600080fd5b506104146109d2565b604051610421919061205b565b60405180910390f35b34801561043657600080fd5b50610451600480360381019061044c9190612076565b6109f8565b005b34801561045f57600080fd5b50610468610e69565b6040516104759190611d67565b60405180910390f35b34801561048a57600080fd5b506104a560048036038101906104a091906120a3565b610efb565b005b3480156104b357600080fd5b506104ce60048036038101906104c99190611db5565b611051565b6040516104db9190611e10565b60405180910390f35b3480156104f057600080fd5b5061050b60048036038101906105069190612076565b611074565b6040516105199291906120f6565b60405180910390f35b34801561052e57600080fd5b5061054960048036038101906105449190611c76565b611098565b6040516105569190611e10565b60405180910390f35b34801561056b57600080fd5b506105866004803603810190610581919061211f565b6110b8565b6040516105939190611cbc565b60405180910390f35b6105b660048036038101906105b1919061215f565b61113f565b005b3480156105c457600080fd5b506105cd6115ed565b6040516105da9190611cbc565b60405180910390f35b600a6020528060005260406000206000915090505481565b60606003805461060a906121ce565b80601f0160208091040260200160405190810160405280929190818152602001828054610636906121ce565b80156106835780601f1061065857610100808354040283529160200191610683565b820191906000526020600020905b81548152906001019060200180831161066657829003601f168201915b5050505050905090565b6000806106986115f3565b90506106a58185856115fb565b600191505092915050565b6008602052816000526040600020602052806000526040600020600091509150508060000154908060010154908060020154908060030160009054906101000a900460ff16905084565b6000600254905090565b60008061070f6115f3565b905061071c85828561160d565b6107278585856116a1565b60019150509392505050565b60006012905090565b6107468282611795565b5050565b600560009054906101000a900473ffffffffffffffffffffffffffffffffffffffff1673ffffffffffffffffffffffffffffffffffffffff163373ffffffffffffffffffffffffffffffffffffffff16146107d1576040517f30cd747100000000000000000000000000000000000000000000000000000000815260040160405180910390fd5b80600960008473ffffffffffffffffffffffffffffffffffffffff1673ffffffffffffffffffffffffffffffffffffffff16815260200190815260200160002060006101000a81548160ff0219169083151502179055508173ffffffffffffffffffffffffffffffffffffffff167fa54714518c5d275fdcd3d2a461e4858e4e8cb04fb93cd0bca9d6d34115f264408260405161086e9190611e10565b60405180910390a25050565b600660009054906101000a900473ffffffffffffffffffffffffffffffffffffffff1681565b60008060008373ffffffffffffffffffffffffffffffffffffffff1673ffffffffffffffffffffffffffffffffffffffff168152602001908152602001600020549050919050565b600b6020528060005260406000206000915054906101000a900460ff1681565b6000806000806000600860008873ffffffffffffffffffffffffffffffffffffffff1673ffffffffffffffffffffffffffffffffffffffff16815260200190815260200160002060008760ff1660ff1681526020019081526020016000206040518060800160405290816000820154815260200160018201548152602001600282015481526020016003820160009054906101000a900460ff1615151515815250509050806000015181602001518260400151836060015194509450945094505092959194509250565b600560009054906101000a900473ffffffffffffffffffffffffffffffffffffffff1681565b600960003373ffffffffffffffffffffffffffffffffffffffff1673ffffffffffffffffffffffffffffffffffffffff16815260200190815260200160002060009054906101000a900460ff16610a7b576040517f584a793800000000000000000000000000000000000000000000000000000000815260040160405180910390fd5b806000600860003373ffffffffffffffffffffffffffffffffffffffff1673ffffffffffffffffffffffffffffffffffffffff16815260200190815260200160002060008360ff1660ff1681526020019081526020016000206000015403610b1a57806040517fa60a8e1e000000000000000000000000000000000000000000000000000000008152600401610b119190611f4b565b60405180910390fd5b81600b60003373ffffffffffffffffffffffffffffffffffffffff1673ffffffffffffffffffffffffffffffffffffffff16815260200190815260200160002060009054906101000a900460ff1615610b9f576040517f646cf55800000000000000000000000000000000000000000000000000000000815260040160405180910390fd5b6000600860003373ffffffffffffffffffffffffffffffffffffffff1673ffffffffffffffffffffffffffffffffffffffff16815260200190815260200160002060008560ff1660ff168152602001908152602001600020905080600201544211610c455780600201546040517fa9ac4710000000000000000000000000000000000000000000000000000000008152600401610c3c9190611cbc565b60405180910390fd5b600081600101548260000154610c5b919061222e565b90506001600b60003373ffffffffffffffffffffffffffffffffffffffff1673ffffffffffffffffffffffffffffffffffffffff16815260200190815260200160002060006101000a81548160ff021916908315150217905550604051806080016040528060008152602001600081526020016000815260200160011515815250600860003373ffffffffffffffffffffffffffffffffffffffff1673ffffffffffffffffffffffffffffffffffffffff16815260200190815260200160002060008760ff1660ff16815260200190815260200160002060008201518160000155602082015181600101556040820151816002015560608201518160030160006101000a81548160ff021916908315150217905550905050600660009054906101000a900473ffffffffffffffffffffffffffffffffffffffff1673ffffffffffffffffffffffffffffffffffffffff1663a9059cbb33836040518363ffffffff1660e01b8152600401610dd0929190612262565b6020604051808303816000875af1158015610def573d6000803e3d6000fd5b505050506040513d601f19601f82011682018060405250810190610e1391906122a0565b503373ffffffffffffffffffffffffffffffffffffffff167fd8138f8a3f377c5259ca548e70e4c2de94f129f5a11036a15b69513cba2b426a82604051610e5a9190611cbc565b60405180910390a25050505050565b606060048054610e78906121ce565b80601f0160208091040260200160405190810160405280929190818152602001828054610ea4906121ce565b8015610ef15780601f10610ec657610100808354040283529160200191610ef1565b820191906000526020600020905b815481529060010190602001808311610ed457829003601f168201915b5050505050905090565b600560009054906101000a900473ffffffffffffffffffffffffffffffffffffffff1673ffffffffffffffffffffffffffffffffffffffff163373ffffffffffffffffffffffffffffffffffffffff1614610f82576040517f30cd747100000000000000000000000000000000000000000000000000000000815260040160405180910390fd5b60008360ff1603610fca57826040517fbca1a956000000000000000000000000000000000000000000000000000000008152600401610fc19190611f4b565b60405180910390fd5b604051806040016040528083815260200182815250600760008560ff1660ff16815260200190815260200160002060008201518160000155602082015181600101559050508260ff167f52411122af13cde1f5bb4cd1735d2d3de551b3e1516262dfb8a18c730246b98c83836040516110449291906120f6565b60405180910390a2505050565b60008061105c6115f3565b90506110698185856116a1565b600191505092915050565b60076020528060005260406000206000915090508060000154908060010154905082565b60096020528060005260406000206000915054906101000a900460ff1681565b6000600160008473ffffffffffffffffffffffffffffffffffffffff1673ffffffffffffffffffffffffffffffffffffffff16815260200190815260200160002060008373ffffffffffffffffffffffffffffffffffffffff1673ffffffffffffffffffffffffffffffffffffffff16815260200190815260200160002054905092915050565b600960003373ffffffffffffffffffffffffffffffffffffffff1673ffffffffffffffffffffffffffffffffffffffff16815260200190815260200160002060009054906101000a900460ff166111c2576040517f584a793800000000000000000000000000000000000000000000000000000000815260040160405180910390fd5b600c54600a60003373ffffffffffffffffffffffffffffffffffffffff1673ffffffffffffffffffffffffffffffffffffffff1681526020019081526020016000205461120f919061222e565b421015611248576040517f19f6ffd400000000000000000000000000000000000000000000000000000000815260040160405180910390fd5b60008103611282576040517fbacc409200000000000000000000000000000000000000000000000000000000815260040160405180910390fd5b6000600760008460ff1660ff16815260200190815260200160002060010154036112e357816040517fbca1a9560000000000000000000000000000000000000000000000000000000081526004016112da9190611f4b565b60405180910390fd5b6000600860003373ffffffffffffffffffffffffffffffffffffffff1673ffffffffffffffffffffffffffffffffffffffff16815260200190815260200160002060008460ff1660ff16815260200190815260200160002090506000612710600760008660ff1660ff168152602001908152602001600020600001548461136a91906122cd565b611374919061233e565b9050600660009054906101000a900473ffffffffffffffffffffffffffffffffffffffff1673ffffffffffffffffffffffffffffffffffffffff166323b872dd3330866040518463ffffffff1660e01b81526004016113d59392919061236f565b6020604051808303816000875af11580156113f4573d6000803e3d6000fd5b505050506040513d601f19601f8201168201806040525081019061141891906122a0565b506040518060800160405280848460000154611434919061222e565b8152602001828460010154611449919061222e565b8152602001600760008760ff1660ff1681526020019081526020016000206001015442856002015461147b919061222e565b611485919061222e565b815260200160001515815250600860003373ffffffffffffffffffffffffffffffffffffffff1673ffffffffffffffffffffffffffffffffffffffff16815260200190815260200160002060008660ff1660ff16815260200190815260200160002060008201518160000155602082015181600101556040820151816002015560608201518160030160006101000a81548160ff02191690831515021790555090505042600a60003373ffffffffffffffffffffffffffffffffffffffff1673ffffffffffffffffffffffffffffffffffffffff168152602001908152602001600020819055503373ffffffffffffffffffffffffffffffffffffffff167fd146a022725997696cebc440ea2dec5c76c3279e69a1a5dd1544ca8b7801fbd1848684600760008a60ff1660ff16815260200190815260200160002060010154426115cf919061222e565b6040516115df94939291906123a6565b60405180910390a250505050565b600c5481565b600033905090565b6116088383836001611817565b505050565b600061161984846110b8565b90507fffffffffffffffffffffffffffffffffffffffffffffffffffffffffffffffff811461169b578181101561168b578281836040517ffb8f41b2000000000000000000000000000000000000000000000000000000008152600401611682939291906123eb565b60405180910390fd5b61169a84848484036000611817565b5b50505050565b600073ffffffffffffffffffffffffffffffffffffffff168373ffffffffffffffffffffffffffffffffffffffff16036117135760006040517f96c6fd1e00000000000000000000000000000000000000000000000000000000815260040161170a919061205b565b60405180910390fd5b600073ffffffffffffffffffffffffffffffffffffffff168273ffffffffffffffffffffffffffffffffffffffff16036117855760006040517fec442f0500000000000000000000000000000000000000000000000000000000815260040161177c919061205b565b60405180910390fd5b6117908383836119ee565b505050565b600073ffffffffffffffffffffffffffffffffffffffff168273ffffffffffffffffffffffffffffffffffffffff16036118075760006040517fec442f050000000000000000000000000000000000000000000000000000000081526004016117fe919061205b565b60405180910390fd5b611813600083836119ee565b5050565b600073ffffffffffffffffffffffffffffffffffffffff168473ffffffffffffffffffffffffffffffffffffffff16036118895760006040517fe602df05000000000000000000000000000000000000000000000000000000008152600401611880919061205b565b60405180910390fd5b600073ffffffffffffffffffffffffffffffffffffffff168373ffffffffffffffffffffffffffffffffffffffff16036118fb5760006040517f94280d620000000000000000000000000000000000000000000000000000000081526004016118f2919061205b565b60405180910390fd5b81600160008673ffffffffffffffffffffffffffffffffffffffff1673ffffffffffffffffffffffffffffffffffffffff16815260200190815260200160002060008573ffffffffffffffffffffffffffffffffffffffff1673ffffffffffffffffffffffffffffffffffffffff1681526020019081526020016000208190555080156119e8578273ffffffffffffffffffffffffffffffffffffffff168473ffffffffffffffffffffffffffffffffffffffff167f8c5be1e5ebec7d5bd14f71427d1e84f3dd0314c0f7b2291e5b200ac8c7c3b925846040516119df9190611cbc565b60405180910390a35b50505050565b600073ffffffffffffffffffffffffffffffffffffffff168373ffffffffffffffffffffffffffffffffffffffff1603611a40578060026000828254611a34919061222e565b92505081905550611b13565b60008060008573ffffffffffffffffffffffffffffffffffffffff1673ffffffffffffffffffffffffffffffffffffffff16815260200190815260200160002054905081811015611acc578381836040517fe450d38c000000000000000000000000000000000000000000000000000000008152600401611ac3939291906123eb565b60405180910390fd5b8181036000808673ffffffffffffffffffffffffffffffffffffffff1673ffffffffffffffffffffffffffffffffffffffff16815260200190815260200160002081905550505b600073ffffffffffffffffffffffffffffffffffffffff168273ffffffffffffffffffffffffffffffffffffffff1603611b5c5780600260008282540392505081905550611ba9565b806000808473ffffffffffffffffffffffffffffffffffffffff1673ffffffffffffffffffffffffffffffffffffffff168152602001908152602001600020600082825401925050819055505b8173ffffffffffffffffffffffffffffffffffffffff168373ffffffffffffffffffffffffffffffffffffffff167fddf252ad1be2c89b69c2b068fc378daa952ba7f163c4a11628f55a4df523b3ef83604051611c069190611cbc565b60405180910390a3505050565b600080fd5b600073ffffffffffffffffffffffffffffffffffffffff82169050919050565b6000611c4382611c18565b9050919050565b611c5381611c38565b8114611c5e57600080fd5b50565b600081359050611c7081611c4a565b92915050565b600060208284031215611c8c57611c8b611c13565b5b6000611c9a84828501611c61565b91505092915050565b6000819050919050565b611cb681611ca3565b82525050565b6000602082019050611cd16000830184611cad565b92915050565b600081519050919050565b600082825260208201905092915050565b60005b83811015611d11578082015181840152602081019050611cf6565b60008484015250505050565b6000601f19601f8301169050919050565b6000611d3982611cd7565b611d438185611ce2565b9350611d53818560208601611cf3565b611d5c81611d1d565b840191505092915050565b60006020820190508181036000830152611d818184611d2e565b905092915050565b611d9281611ca3565b8114611d9d57600080fd5b50565b600081359050611daf81611d89565b92915050565b60008060408385031215611dcc57611dcb611c13565b5b6000611dda85828601611c61565b9250506020611deb85828601611da0565b9150509250929050565b60008115159050919050565b611e0a81611df5565b82525050565b6000602082019050611e256000830184611e01565b92915050565b600060ff82169050919050565b611e4181611e2b565b8114611e4c57600080fd5b50565b600081359050611e5e81611e38565b92915050565b60008060408385031215611e7b57611e7a611c13565b5b6000611e8985828601611c61565b9250506020611e9a85828601611e4f565b9150509250929050565b6000608082019050611eb96000830187611cad565b611ec66020830186611cad565b611ed36040830185611cad565b611ee06060830184611e01565b95945050505050565b600080600060608486031215611f0257611f01611c13565b5b6000611f1086828701611c61565b9350506020611f2186828701611c61565b9250506040611f3286828701611da0565b9150509250925092565b611f4581611e2b565b82525050565b6000602082019050611f606000830184611f3c565b92915050565b611f6f81611df5565b8114611f7a57600080fd5b50565b600081359050611f8c81611f66565b92915050565b60008060408385031215611fa957611fa8611c13565b5b6000611fb785828601611c61565b9250506020611fc885828601611f7d565b9150509250929050565b6000819050919050565b6000611ff7611ff2611fed84611c18565b611fd2565b611c18565b9050919050565b600061200982611fdc565b9050919050565b600061201b82611ffe565b9050919050565b61202b81612010565b82525050565b60006020820190506120466000830184612022565b92915050565b61205581611c38565b82525050565b6000602082019050612070600083018461204c565b92915050565b60006020828403121561208c5761208b611c13565b5b600061209a84828501611e4f565b91505092915050565b6000806000606084860312156120bc576120bb611c13565b5b60006120ca86828701611e4f565b93505060206120db86828701611da0565b92505060406120ec86828701611da0565b9150509250925092565b600060408201905061210b6000830185611cad565b6121186020830184611cad565b9392505050565b6000806040838503121561213657612135611c13565b5b600061214485828601611c61565b925050602061215585828601611c61565b9150509250929050565b6000806040838503121561217657612175611c13565b5b600061218485828601611e4f565b925050602061219585828601611da0565b9150509250929050565b7f4e487b7100000000000000000000000000000000000000000000000000000000600052602260045260246000fd5b600060028204905060018216806121e657607f821691505b6020821081036121f9576121f861219f565b5b50919050565b7f4e487b7100000000000000000000000000000000000000000000000000000000600052601160045260246000fd5b600061223982611ca3565b915061224483611ca3565b925082820190508082111561225c5761225b6121ff565b5b92915050565b6000604082019050612277600083018561204c565b6122846020830184611cad565b9392505050565b60008151905061229a81611f66565b92915050565b6000602082840312156122b6576122b5611c13565b5b60006122c48482850161228b565b91505092915050565b60006122d882611ca3565b91506122e383611ca3565b92508282026122f181611ca3565b91508282048414831517612308576123076121ff565b5b5092915050565b7f4e487b7100000000000000000000000000000000000000000000000000000000600052601260045260246000fd5b600061234982611ca3565b915061235483611ca3565b9250826123645761236361230f565b5b828204905092915050565b6000606082019050612384600083018661204c565b612391602083018561204c565b61239e6040830184611cad565b949350505050565b60006080820190506123bb6000830187611cad565b6123c86020830186611f3c565b6123d56040830185611cad565b6123e26060830184611cad565b95945050505050565b6000606082019050612400600083018661204c565b61240d6020830185611cad565b61241a6040830184611cad565b94935050505056fea2646970667358221220669552fd4daab151f92db8d04cba8c95689d65e23e7a2afc3e2bbed03ed2e97b64736f6c634300081c0033",
  "linkReferences": {},
  "deployedLinkReferences": {}
}